:1000000008308A00002800000A108A100A118207AE
:10001000313432343334343435343634373438349C
:1000200039342A34303423340A108A100A118207F2
:100030003F3406345B344F3466346D347D340734DA
:100040007F3467340A108A100A11820708340C348E
:1000500004340634063404340C34083408340C34C4
:1000600004340634063404340C3408340A108A107C
:100070000A11820708340C34043406340234033481
:10008000013409340C3406340C004326412B45104E
:10009000C121D42A412600010C004326412B4510E2
:1000A000CE2A452B411020000C00A021CC20D622C6
:1000B000A0244E2B41264922411000010C000C00C7
:1000C0002022C923492A45104326412B451000010F
:1000D0000C00A021CC20D622A0214F29D222432AD5
:1000E000411000010C00C424C724D422A02A4E10C1
:1000F000CE2ACD22D22720000C000C10E830A039E7
:100100006536E531E3346F3761326F100A106536BA
:10011000EE3AED32F237A01263000C10E830A0394D
:100120006536E531E3346F3761326F100A1065369A
:10013000EE3AED32F237A01263000C00CC20202AF8
:10014000C526D022D220D42AD2200001C529A02140
:100150003D102533201020108009CC20202AC526F0
:10016000D022D220D42AD2200001C529A0213D10BE
:1001700025332010201000010C00A021CC20D62215
:10018000A0244E2B41264922411000010C0054307E
:100190008400831300080319DB280130F800F701FD
:1001A000F70BD028F80BCF284A30F700F70BD628EA
:1001B000D928800BCD2808005B0EF039F7000F30EE
:1001C00006057704860000000614E62806100800DD
:1001D0000608F700060E0F39F8000800831606100F
:1001E00086100611831286100F3083160605F0382C
:1001F000860083120615000006140000E820780827
:10020000DB000610000006140000E8207808DA0081
:1002100006100F3083160605860083125B0EF7006A
:10022000F030F70577085A04F8007808DA00DA1B8E
:10023000F428581C86105818861400000611000077
:100240000610590EDA000F30DA055A08DB00DC2000
:1002500059080F39DA00DB00DC2008002830C6001E
:100260000C30C7000130C8000630C90006108610E7
:1002700006110F308316060586000610861006113B
:100280000F308312D400C7200130C5004508033C5D
:10029000031C52290330DB00DC200530D400C720CA
:1002A000C50A46290230DB00DC200530D400C72017
:1002B000C5014508033C031C6929463045078400F5
:1002C00083130008CA00D8014A08D900EE20C50AE5
:1002D000592908008A150A122B281030E000F7016E
:1002E000FA01DD0CDC0C031C7B295E08F707031800
:1002F000FA0A5F08FA07FA0CF70CF90CF80CE00B95
:1003000071290800F701F8015A0803105B18F70774
:10031000F70CF80CDB18F707F70CF80C5B19F7076C
:10032000F70CF80CDB19F707F70CF80C5B1AF7075A
:10033000F70CF80CDB1AF707F70CF80C5B1BF70748
:10034000F70CF80CDB1BF707F70CF80C0800550B43
:10035000AA29AD294030D600AE29D6010130540279
:10036000D60756088038D700D8015708D900EE20A4
:1003700008005308073A0319C7290B3A0319CC2977
:10038000063A0319D429023A0319DA29DF29013080
:10039000D400D500A721E429D8010130D900EE20EE
:1003A0000230D400C720E4290130D4000230D50047
:1003B000A721E429D8011030D900EE20E42901302A
:1003C000D8005308D900EE2008000B08D0008B138A
:1003D000831603178C170C140000000083120313FC
:1003E000D01B8B1703170C087F390319392A031305
:1003F000D00003170D080313D10003170F080313D0
:10040000D2005008D300B921510803178D000313FF
:10041000520803178F0003130B08D3008B138316A6
:1004200003178C170C140000000083120313D31B56
:100430008B1703170C0D0E0D7F390319392A03137F
:10044000D00003170D080313D10003170F0803137F
:10045000D2005008D300B921510803178D000313AF
:10046000520803178F008D0A03198F0A0313E52919
:10047000031703130800D001A00A2008213C031829
:10048000992A230803194B2A013A0319512A033ADE
:100490000319572A5C2ADE308316860083128600F1
:1004A0005C2ABE3083168600831286005C2A7E306A
:1004B0008316860083128600211C682A06081E39CE
:1004C0001E3C031D672A21102208D000A201982A91
:1004D00006081E391E3C0319932A06080239031D1B
:1004E000732AD101872A06080439031D7A2A0130AC
:1004F000D100872A06080839031D812A0230D1005D
:10050000872A06081039031D872A0330D1005108B5
:10051000DA000330DB008221230878070420F8008A
:10052000A2002114982AA30A2308033C0319A3015B
:10053000A001FE308316860083125008F8000800E0
:100540003B227808A700A708031DAA2A3B227808A7
:10055000A700A32AA7080319E72A2708303C031994
:10056000AC012708313C031DB72A0130AC00270835
:10057000323C031DBD2A0230AC002708333C031D6A
:10058000C32A0330AC002708343C031DC92A0430B9
:10059000AC002708353C031DCF2A0530AC002708E6
:1005A000363C031DD52A0630AC002708373C031D16
:1005B000DB2A0730AC002708383C031DE12A08304D
:1005C000AC002708393C031DE72A0930AC000800BD
:1005D000A0222708233C0319F62A27082A3C0319DE
:1005E000F62A2A30D300B9212C08A80027082A3C73
:1005F0000319FD2A2708233C0319402BA0222708B2
:10060000233C03190C2B27082A3C03190C2B2A30F6
:10061000D300B9212C08A90027082A3C0319132B61
:100620002708233C0319402BA0222708233C031949
:10063000222B27082A3C0319222B2A30D300B92168
:100640002C08AA0027082A3C0319292B2708233C39
:100650000319402BA0222708233C0319382B270815
:100660002A3C0319382B2A30D300B9212C08AB00BF
:1006700027082A3C03193F2B2708233C0319402B4A
:100680000800D101D001DD012808DC000330DF00C3
:10069000E830DE006D217908D3007808D200DB0154
:1006A0002908DA005B08DD002908DC00DF0164307E
:1006B000DE006D217908D5007808D4002A08DA0018
:1006C0000A30DB008221D7017808D600D9012B0837
:1006D000D80054085207DA005308DB005508031805
:1006E000550FDB075608DA0757080318570FDB07C3
:1006F00058085A07D0005B08D10059080318590F51
:10070000D107A801A901AA01AB012D085002031DC0
:10071000912B2E085102031D912B0130F800932BD1
:10072000932B0030F8000800C501C701C601443012
:1007300003178D0000308F000313E5210130D40032
:10074000D500A721453003178D0000308F0003131B
:10075000E5210130D4000230D500A721E822412351
:100760007808C500450BC52C4C3003178D000030B0
:100770008F000313E5210130D400D500A7214D30AF
:1007800003178D0000308F000313E5210130D400E2
:100790000230D500A721A0222708233C0319D92B1A
:1007A00027082A3C0319D92B2A30D300B9212C0859
:1007B000A800A0222708233C0319E72B27082A3C7E
:1007C0000319E72B2A30D300B9212C08A900A02255
:1007D0002708233C0319F52B27082A3C0319F52B7E
:1007E0002A30D300B9212C08AA00A0222708233CD4
:1007F0000319032C27082A3C0319032C2A30D300A1
:10080000B9212C08AB00DD012808DC000330DF0033
:10081000E830DE006D217908C9007808C800290891
:10082000DA000A30DB008221CB017808CA004B08CD
:10083000DD004A08DC00DF010A30DE006D217908A6
:10084000CB007808CA002A08DA000A30DB008221CF
:10085000CD017808CC00CF012B08CE004A0848070C
:10086000D0004908D1004B0803184B0FD1074C08A2
:10087000D0074D0803184D0FD1074E085007C6008A
:100880005108C7004F0803184F0FC7074708AE00AD
:100890004608AD000B08F7008B1303178D010313F7
:1008A000280803178C0083168C130C1555308D0007
:1008B000AA308D008C148C185B2C0C1177088312D5
:1008C00003138B040B08F7008B13013003178D0003
:1008D0000313290803178C0083168C130C1555304D
:1008E0008D00AA308D008C148C18742C0C11770894
:1008F000831203138B040B08F7008B1302300317CA
:100900008D0003132A0803178C0083168C130C1513
:1009100055308D00AA308D008C148C188D2C0C1144
:100920007708831203138B040B08F7008B13033033
:1009300003178D0003132B0803178C0083168C13E9
:100940000C1555308D00AA308D008C148C18A62CF7
:100950000C117708831203138B040B08F7008B1319
:10096000043003178D000C308C0083168C130C158B
:1009700055308D00AA308D008C148C18BD2C0C11B4
:100980007708831203138B04E62C543003178D0071
:1009900000308F000313E5210130D4000230D50070
:1009A000A721553003178D0000308F000313E52178
:1009B0001030D000FA30D400C720D00BDA2C5E30D3
:1009C00003178D0000308F000313E52108000B088A
:1009D000C6008B13831603178C170C14000000003D
:1009E00083120313C61B8B1703181E2D03170C0845
:1009F0007F390313C60003170D080313C70003173D
:100A00000F080313C8004608D300B921470803178D
:100A10008D000313480803178F0003130B08C90048
:100A20008B13831603178C170C140000000083121D
:100A30000313C91B8B17C50B1E2D3D2D03170C0D62
:100A40000E0D7F390313C60003170D080313C700EB
:100A500003170F080313C8004608D300B92147083D
:100A600003178D000313480803178F008D0A03191D
:100A70008F0A03100313C50BE72C08008E30F70014
:100A80004608F8004508F900FA01F808031D522D40
:100A90007908F800F9010830F702F808031D522D13
:100AA000F7015A2D0310F81B592DF90DF80DF70316
:100AB000522DF8138A150A128E2A52080319CD2DC9
:100AC000DA0056080319CD2DDA0703186E2D7F3092
:100AD000DA02031CCD2D0319CD2D722D8130DA07DA
:100AE0000318CD2D5A08F700F801F901FA0153084F
:100AF000DE00DE175408DD005508DC001830DA008F
:100B0000DB015C1C9B2D5908FA07031C8D2DF90A8B
:100B1000031D8D2DF80A0319DB175808F907031C6C
:100B2000942DF80A0319DB175708D400D41754087A
:100B3000F8070318DB17DB0DF80CF90CFA0CDE0CC8
:100B4000DD0CDC0C0310DA0B802D0130F7070318E5
:100B5000CD2DF81BB22DDE0DFA0DF90DF80DF703B2
:100B60000319CD2DDE1FC32DFA0A031DC32DF90A6B
:100B7000031DC32DF80A031DC32DF80CF90CFA0C44
:100B8000F70A0319CD2D5308DB005708DB06DB1FDE
:100B9000CB2DF817D12DF813D12DF701F801F9015C
:100BA000FA0108008318D72D5A3084008313F70107
:100BB000F801F901FA01DA01DB01DC01DD01590874
:100BC0005804570456040319152E2030DE00031074
:100BD000D20DD30DD40DD50DDA0DDB0DDC0DDD0DF1
:100BE00059085D02031DFE2D58085C02031DFE2DF1
:100BF00057085B02031DFE2D56085A02031C0F2ED8
:100C00005608DA025708031C570FDB025808031C6A
:100C1000580FDC025908031C590FDD020314F70DAD
:100C2000F80DF90DFA0DDE0BE72D5A088000840A45
:100C30005B088000840A5C088000840A5D088000EC
:100C400008000408CA004908CC000319402E4808CF
:100C5000D5004708D4004608D3004508D200D90182
:100C6000D8012030D7008230D6005D257A08C80030
:100C70007908C7007808C6007708C500CC0B272E76
:100C80004808D5004708D4004608D3004508D200DC
:100C90005208B63CD200FA015308D600D31703100D
:100CA000D30CD40CD50CFA0CF90CF80CF70CD20BB5
:100CB0004F2ED61F662EF709F809F909FA09F70A27
:100CC0000319F80A0319F90A0319FA0A7A08C8007D
:100CD0007908C7007808C6007708C500C81F7D2EB0
:100CE000CA03CA16C509C609C709C809C50A03192E
:100CF000C60A0319C70A0319C80A3B30D1009A3043
:100D0000D000CA30CF00CE010A30CC004908031908
:100D1000CA0A83144530840083134808D500470865
:100D2000D4004608D3004508D2005108D900500825
:100D3000D8004F08D7004E08D600D2257808F7080B
:100D4000031DB52E490A4C020319B52E4A08031992
:100D5000B72E0F394C020319AF2E0318E72ECA1B0A
:100D6000E72E4A1BB72E2030E32E2030CA05CA1EBC
:100D7000C52ECA124908031DCA037708CA002D30C0
:100D8000D300B9214A08F700CA0149084C02031DE3
:100D9000D32E7708CA002E30D300B9214A08F700B5
:100DA0002030CA0500303030CA1EE32ECA1249086E
:100DB000031DCA037708CA002D30D300B9214A08A1
:100DC000F700CA013030F7077708D300B921831044
:100DD0005108D5005008D4004F08D3004E08D20067
:100DE000D901D801D7010A30D600D2257A08D1001E
:100DF0007908D0007808CF007708CE00CC0B892E78
:100E000008004608CD004A08CD06CD1F0C2F03115F
:100E10000310C61B03143F2F4608CD004908CE001F
:100E20004508CE0203191A2FCD1F3F2F0308013AA0
:100E300083003F2F4A08CE004608CE020319262F12
:100E4000CD1F3F2F0308013A83003F2F4B08CE00F0
:100E50004708CE020319322FCD1F3F2F0308013A56
:100E600083003F2F4C08CE004808CE0203193E2FC6
:100E7000CD1F3F2F0308013A83003F2F03108A152F
:040E80000A12042B23
:1010000003081F3983002730AE000F30AD00B10157
:10101000B001FF30B200831603170908C0398900F8
:1010200003131F129F1200300317880083128701D9
:101030008801890183130313A0012110A201A301D8
:101040000030831687008312B20087018A112E2197
:101050008A158A116A298A15FF3083169500811333
:101060000430831203178D0083168C130C14831223
:101070000C080313AF002F080C3C03194428273039
:10108000AE000F30AD00AF2803178D0183168C130F
:101090000C1483120C080313BB00013003178D00DE
:1010A00083168C130C1483120C080313BC0002303B
:1010B00003178D0083168C130C1483120C08031372
:1010C000BD00033003178D0083168C130C1483129C
:1010D0000C080313BE00DD013B08DC000330DF0019
:1010E000E830DE008A116D218A157908B40078088D
:1010F000B300C6013C08C5004608DD004508DC0019
:10110000DF016430DE008A116D218A157908B6008E
:101110007808B5003D08DA000A30DB008A11822128
:101120008A15B8017808B700BA013E08B900350839
:101130003307C5003408C60036080318360FC60743
:101140003708C50738080318380FC6073908450798
:10115000AD004608AE003A0803183A0FAE075F30FC
:1011600003178D0000308F008A110313E5218A15C3
:101170000130D400D5008A11A7218A1560300317E9
:101180008D0000308F008A110313E5218A1501308C
:10119000D4000230D5008A11A7218A150430C50079
:1011A000FA30D4008A11C7208A15C50BD0288A11BD
:1011B000E8228A1527082A3C031DE2288A11942375
:1011C0008A15902B2708233C0319F1288A11A022A5
:1011D0008A1527082A3C031DF0288A1194238A15B2
:1011E000E2288A1141238A15780B602B6830031797
:1011F0008D0000308F008A110313E5218A1501301C
:10120000D400D5008A11A7218A15693003178D00F3
:1012100000308F008A110313E5218A150430C500C0
:10122000FA30D4008A11C7208A15C50B10297230F4
:1012300003178D0000308F008A110313E5218A15F2
:10124000733003178D0000308F008A110313E521DE
:101250008A150430C500FA30D4008A11C7208A15D7
:10126000C50B2B297C3003178D0000308F008A11AD
:101270000313E5218A15FF308316950081138A1127
:1012800083123B228A157808A70030302702A50078
:10129000A70803195D2B7D3003178D0000308F00E8
:1012A00003101D300313C5008A11E7248A1527088F
:1012B000D3008A11B9218A150530D4008A11C720BC
:1012C0008A152508033C031D77298316891083128C
:1012D000891083168910831289140430C500FA30EE
:1012E000D4008A11C7208A15C50B6F297B29831664
:1012F0008910831289102508043C031D9129831647
:10130000091183120911831609118312091502307C
:10131000C500FA30D4008A11C7208A15C50B892967
:1013200095298316091183120911250BBB29003059
:10133000831685008312250BBB29A60126080F3CC6
:10134000031CBA29250BBA2926088A1122208A15DE
:10135000F80085000230C500FA30D4008A11C72099
:101360008A15C50BAC29A60A2608103C031DB9290D
:10137000A5019E299B292508023C031D282AA401BA
:101380002408093C031C282A2508023C031D282A9E
:10139000003083168500831224088A1136208A15AE
:1013A000F80085000230C500FA30D4008A11C72049
:1013B0008A15C50BD42924080A3C031DE029A50180
:1013C0000030831687008312B20024088A1114208B
:1013D0008A15F8008700A40A0230C500FA30D4004C
:1013E0008A11C7208A15C50BEE2924080A3C031D63
:1013F000272AA5080319FD29003032103208831668
:10140000870083120710B2103208831687008312F8
:101410008710321132088316870083120711B21128
:10142000320883168700831287113212320883161E
:10143000870083120712B2123208831687008312C4
:101440008712321332088316870083120713C029CC
:101450002508053C031D5D2BC401C301C201C10168
:10146000C001BF018D3003178D0000308F000310C5
:101470001D300313C5008A11E7248A152708D300FD
:101480008A11B9218A150430C500FA30D4008A11B6
:10149000C7208A15C50B452A83160914891009111E
:1014A000891103170908C039890003131F129F12FD
:1014B000203003178800831203131F179F1783160A
:1014C0009F1783121F148A112E218A159D3003172E
:1014D0008D0000308F008A110313E5218A15A401C5
:1014E0002408093C031C5D2B1430F8001F08C33985
:1014F00078049F000130D4008A11C7208A159F14F8
:101500009F18802A83161E088312BF001E08C00081
:101510004008C6003F08C5008A113E2D8A157A088A
:10152000D5007908D4007808D3007708D2005A3063
:10153000D900F530D8007930D7007D30D6008A1137
:101540005D258A157A08C4007908C3007808C200AE
:101550007708C1000130D400D5008A11A7218A156F
:101560009E3003178D0000308F008A110313E52190
:101570008A150230D400D5008A11A7218A15A63019
:1015800003178D0000308F00031006300313C500D1
:101590008A11E7248A15893084004408C80043086A
:1015A000C7004208C6004108C5000230C9008A11C0
:1015B00021268A15AA3003178D0000308F000310F2
:1015C00004300313C5008A11E7248A150230C500D0
:1015D000FA30D4008A11C7208A15C50BE82AA40165
:1015E0002408093C031C5B2BC801C7014830C60016
:1015F0008430C5004408CC004308CB004208CA0030
:101600004108C9008A11012F8A15031C5B2BAD30DC
:1016100003178D0000308F008A110313E5218A150E
:101620000230D400D5008A11A7218A15B5300317DE
:101630008D0000308F00031006300313C5008A119F
:10164000E7248A15893084004408C8004308C7008D
:101650004208C6004108C5000230C9008A1121268F
:101660008A15B93003178D0000308F000310043045
:101670000313C5008A11E7248A150230C500FA3029
:10168000D4008A11C7208A15C50B3F2B0030831662
:101690008500831224088A1136208A15F8008500F7
:1016A000A40A0230C500FA30D4008A11C7208A1576
:1016B000C50B532BF02AA501702A83163F298312EC
:1016C0008A1141238A15F8080319662BBC300317C9
:1016D0008D0000308F008A110313E5218A15013037
:1016E000D400D5008A11A7218A15BD3003178D00BB
:1016F00000308F008A110313E5218A150430C500DC
:10170000FA30D4008A11C7208A15C50B802BC63049
:1017100003178D0000308F008A110313E5218A150D
:04172000AF2863008B
:04400E00F12CFF3F53
:00000001FF
;PIC16F887
;CRC=582D  CREATED="22-mar.-21 20:29"
